{"abi":[{"inputs":[{"internalType":"address","name":"_dappTokenAddress","type":"address"}],"stateMutability":"nonpayable","type":"constructor","name":"constructor"},{"anonymous":false,"inputs":[{"indexed":true,"internalType":"address","name":"previousOwner","type":"address"},{"indexed":true,"internalType":"address","name":"newOwner","type":"address"}],"name":"OwnershipTransferred","type":"event"},{"inputs":[{"internalType":"address","name":"_token","type":"address"}],"name":"addAllowedTokens","outputs":[],"stateMutability":"nonpayable","type":"function"},{"inputs":[{"internalType":"uint256","name":"","type":"uint256"}],"name":"allowedTokens","outputs":[{"internalType":"address","name":"","type":"address"}],"stateMutability":"view","type":"function"},{"inputs":[],"name":"dappToken","outputs":[{"internalType":"contract IERC20","name":"","type":"address"}],"stateMutability":"view","type":"function"},{"inputs":[{"internalType":"address","name":"_token","type":"address"}],"name":"getTokenValue","outputs":[{"internalType":"uint256","name":"","type":"uint256"},{"internalType":"uint256","name":"","type":"uint256"}],"stateMutability":"view","type":"function"},{"inputs":[{"internalType":"address","name":"_user","type":"address"},{"internalType":"address","name":"_token","type":"address"}],"name":"getUserSingleTokenValue","outputs":[{"internalType":"uint256","name":"","type":"uint256"}],"stateMutability":"view","type":"function"},{"inputs":[{"internalType":"address","name":"_user","type":"address"}],"name":"getUserTotalValue","outputs":[{"internalType":"uint256","name":"","type":"uint256"}],"stateMutability":"view","type":"function"},{"inputs":[],"name":"issueTokens","outputs":[],"stateMutability":"nonpayable","type":"function"},{"inputs":[],"name":"owner","outputs":[{"internalType":"address","name":"","type":"address"}],"stateMutability":"view","type":"function"},{"inputs":[],"name":"renounceOwnership","outputs":[],"stateMutability":"nonpayable","type":"function"},{"inputs":[{"internalType":"address","name":"_token","type":"address"},{"internalType":"address","name":"_priceFeed","type":"address"}],"name":"setPriceFeedContract","outputs":[],"stateMutability":"nonpayable","type":"function"},{"inputs":[{"internalType":"uint256","name":"_amount","type":"uint256"},{"internalType":"address","name":"_token","type":"address"}],"name":"stakeTokens","outputs":[],"stateMutability":"nonpayable","type":"function"},{"inputs":[{"internalType":"uint256","name":"","type":"uint256"}],"name":"stakers","outputs":[{"internalType":"address","name":"","type":"address"}],"stateMutability":"view","type":"function"},{"inputs":[{"internalType":"address","name":"","type":"address"},{"internalType":"address","name":"","type":"address"}],"name":"stakingBalance","outputs":[{"internalType":"uint256","name":"","type":"uint256"}],"stateMutability":"view","type":"function"},{"inputs":[{"internalType":"address","name":"_token","type":"address"}],"name":"tokenIsAllowed","outputs":[{"internalType":"bool","name":"","type":"bool"}],"stateMutability":"nonpayable","type":"function"},{"inputs":[{"internalType":"address","name":"","type":"address"}],"name":"tokenPriceFeedMapping","outputs":[{"internalType":"address","name":"","type":"address"}],"stateMutability":"view","type":"function"},{"inputs":[{"internalType":"address","name":"newOwner","type":"address"}],"name":"transferOwnership","outputs":[],"stateMutability":"nonpayable","type":"function"},{"inputs":[{"internalType":"address","name":"","type":"address"}],"name":"uniqueTokenStaked","outputs":[{"internalType":"uint256","name":"","type":"uint256"}],"stateMutability":"view","type":"function"},{"inputs":[{"internalType":"address","name":"_token","type":"address"}],"name":"unstakeTokens","outputs":[],"stateMutability":"nonpayable","type":"function"}],"bytecode":"608060405234801561001057600080fd5b5060405161108b38038061108b83398101604081905261002f916100ad565b6100383361005d565b600680546001600160a01b0319166001600160a01b03929092169190911790556100dd565b600080546001600160a01b038381166001600160a01b0319831681178455604051919092169283917f8be0079c531659141344cd1fd0a4f28419497f9722a3daafe3b4186f6b6457e09190a35050565b6000602082840312156100bf57600080fd5b81516001600160a01b03811681146100d657600080fd5b9392505050565b610f9f806100ec6000396000f3fe608060405234801561001057600080fd5b50600436106101165760003560e01c806360ab5852116100a2578063af3f5e2211610071578063af3f5e2214610262578063dd5b846714610275578063f1c5d6c214610298578063f2fde38b146102c0578063fd5e6dd1146102d357600080fd5b806360ab58521461022e578063715018a614610236578063877dd39d1461023e5780638da5cb5b1461025157600080fd5b806329161a00116100e957806329161a00146101aa5780632d1ad8b8146101d557806355b08abc146101e85780635e5f2e26146102085780635eb186f81461021b57600080fd5b80630bea440d1461011b578063171e44ea14610130578063276b11da1461014357806327927b3e14610169575b600080fd5b61012e610129366004610c4d565b6102e6565b005b61012e61013e366004610c79565b6104bd565b610156610151366004610c9b565b610539565b6040519081526020015b60405180910390f35b610192610177366004610c79565b6003602052600090815260409020546001600160a01b031681565b6040516001600160a01b039091168152602001610160565b6101566101b8366004610c9b565b600160209081526000928352604080842090915290825290205481565b61012e6101e3366004610c79565b6105c0565b6101566101f6366004610c79565b60026020526000908152604090205481565b610192610216366004610cc5565b6106f0565b600654610192906001600160a01b031681565b61012e61071a565b61012e610817565b61012e61024c366004610c9b565b61084d565b6000546001600160a01b0316610192565b610156610270366004610c79565b6108a5565b610288610283366004610c79565b610963565b6040519015158152602001610160565b6102ab6102a6366004610c79565b6109cd565b60408051928352602083019190915201610160565b61012e6102ce366004610c79565b610ace565b6101926102e1366004610cc5565b610b66565b6000821161033b5760405162461bcd60e51b815260206004820152601a60248201527f416d6f756e74206d757374206265206d6f7265207468616e203000000000000060448201526064015b60405180910390fd5b61034481610963565b6103905760405162461bcd60e51b815260206004820152601d60248201527f546f6b656e2069732063757272656e746c79206e6f20616c6c6f7765640000006044820152606401610332565b6040516323b872dd60e01b8152336004820152306024820152604481018390526001600160a01b038216906323b872dd906064016020604051808303816000875af11580156103e3573d6000803e3d6000fd5b505050506040513d601f19601f820116820180604052508101906104079190610cde565b506104123382610b76565b6001600160a01b0381166000908152600160209081526040808320338452909152902054610441908390610d16565b6001600160a01b0382166000908152600160208181526040808420338552825280842094909455600290529190205414156104b957600480546001810182556000919091527f8a35acfbc15ff81a39ae7d344fd709f28e8600b4aa8c65c6b64bfe7fe36bd19b0180546001600160a01b031916331790555b5050565b6000546001600160a01b031633146104e75760405162461bcd60e51b815260040161033290610d2e565b600580546001810182556000919091527f036b6384b5eca791c62761152d0c79bb0604c104a5fb6f4eb0703f3154bb3db00180546001600160a01b0319166001600160a01b0392909216919091179055565b6001600160a01b03821660009081526002602052604081205461055e575060006105ba565b60008061056a846109cd565b909250905061057a81600a610e47565b6001600160a01b038086166000908152600160209081526040808320938a16835292905220546105ab908490610e53565b6105b59190610e72565b925050505b92915050565b6001600160a01b0381166000908152600160209081526040808320338452909152902054806106315760405162461bcd60e51b815260206004820152601b60248201527f5374616b696e672062616c616e63652063616e6e6f74206265203000000000006044820152606401610332565b60405163a9059cbb60e01b8152336004820152602481018290526001600160a01b0383169063a9059cbb906044016020604051808303816000875af115801561067e573d6000803e3d6000fd5b505050506040513d601f19601f820116820180604052508101906106a29190610cde565b506001600160a01b038216600090815260016020818152604080842033855282528084208490556002909152909120546106dc9190610e94565b336000908152600260205260409020555050565b6005818154811061070057600080fd5b6000918252602090912001546001600160a01b0316905081565b6000546001600160a01b031633146107445760405162461bcd60e51b815260040161033290610d2e565b60005b6004548110156108145760006004828154811061076657610766610eab565b60009182526020822001546001600160a01b03169150610785826108a5565b60065460405163a9059cbb60e01b81526001600160a01b0385811660048301526024820184905292935091169063a9059cbb906044016020604051808303816000875af11580156107da573d6000803e3d6000fd5b505050506040513d601f19601f820116820180604052508101906107fe9190610cde565b505050808061080c90610ec1565b915050610747565b50565b6000546001600160a01b031633146108415760405162461bcd60e51b815260040161033290610d2e565b61084b6000610be1565b565b6000546001600160a01b031633146108775760405162461bcd60e51b815260040161033290610d2e565b6001600160a01b03918216600090815260036020526040902080546001600160a01b03191691909216179055565b6001600160a01b03811660009081526002602052604081205481906109005760405162461bcd60e51b81526020600482015260116024820152704e6f20746f6b656e73207374616b65642160781b6044820152606401610332565b60005b60055481101561095c5761093e846005838154811061092457610924610eab565b6000918252602090912001546001600160a01b0316610539565b6109489083610d16565b91508061095481610ec1565b915050610903565b5092915050565b6000805b6005548110156109c457826001600160a01b03166005828154811061098e5761098e610eab565b6000918252602090912001546001600160a01b031614156109b25750600192915050565b806109bc81610ec1565b915050610967565b50600092915050565b6001600160a01b03808216600090815260036020526040808220548151633fabe5a360e21b815291519293849391169182918491839163feaf968c9160048082019260a0929091908290030181865afa158015610a2e573d6000803e3d6000fd5b505050506040513d601f19601f82011682018060405250810190610a529190610ef6565b5050509150506000826001600160a01b031663313ce5676040518163ffffffff1660e01b8152600401602060405180830381865afa158015610a98573d6000803e3d6000fd5b505050506040513d601f19601f82011682018060405250810190610abc9190610f46565b919760ff909216965090945050505050565b6000546001600160a01b03163314610af85760405162461bcd60e51b815260040161033290610d2e565b6001600160a01b038116610b5d5760405162461bcd60e51b815260206004820152602660248201527f4f776e61626c653a206e6577206f776e657220697320746865207a65726f206160448201526564647265737360d01b6064820152608401610332565b61081481610be1565b6004818154811061070057600080fd5b6001600160a01b038082166000908152600160209081526040808320938616835292905220546104b9576001600160a01b038216600090815260026020526040902054610bc4906001610d16565b6001600160a01b0383166000908152600260205260409020555050565b600080546001600160a01b038381166001600160a01b0319831681178455604051919092169283917f8be0079c531659141344cd1fd0a4f28419497f9722a3daafe3b4186f6b6457e09190a35050565b80356001600160a01b0381168114610c4857600080fd5b919050565b60008060408385031215610c6057600080fd5b82359150610c7060208401610c31565b90509250929050565b600060208284031215610c8b57600080fd5b610c9482610c31565b9392505050565b60008060408385031215610cae57600080fd5b610cb783610c31565b9150610c7060208401610c31565b600060208284031215610cd757600080fd5b5035919050565b600060208284031215610cf057600080fd5b81518015158114610c9457600080fd5b634e487b7160e01b600052601160045260246000fd5b60008219821115610d2957610d29610d00565b500190565b6020808252818101527f4f776e61626c653a2063616c6c6572206973206e6f7420746865206f776e6572604082015260600190565b600181815b80851115610d9e578160001904821115610d8457610d84610d00565b80851615610d9157918102915b93841c9390800290610d68565b509250929050565b600082610db5575060016105ba565b81610dc2575060006105ba565b8160018114610dd85760028114610de257610dfe565b60019150506105ba565b60ff841115610df357610df3610d00565b50506001821b6105ba565b5060208310610133831016604e8410600b8410161715610e21575081810a6105ba565b610e2b8383610d63565b8060001904821115610e3f57610e3f610d00565b029392505050565b6000610c948383610da6565b6000816000190483118215151615610e6d57610e6d610d00565b500290565b600082610e8f57634e487b7160e01b600052601260045260246000fd5b500490565b600082821015610ea657610ea6610d00565b500390565b634e487b7160e01b600052603260045260246000fd5b6000600019821415610ed557610ed5610d00565b5060010190565b805169ffffffffffffffffffff81168114610c4857600080fd5b600080600080600060a08688031215610f0e57600080fd5b610f1786610edc565b9450602086015193506040860151925060608601519150610f3a60808701610edc565b90509295509295909350565b600060208284031215610f5857600080fd5b815160ff81168114610c9457600080fdfea264697066735822122038510abee97f1962bea20a78ad45e06086c92236c435762e71887109210050bf64736f6c634300080c0033","bytecodeSha1":"3b96fa390568363a1f4aa6141923dfc3bbf1511d","compiler":{"evm_version":"istanbul","optimizer":{"enabled":true,"runs":200},"version":"0.8.12+commit.f00d7308"},"contractName":"TokenFarm","language":"Solidity","natspec":{"kind":"dev","methods":{"owner()":{"details":"Returns the address of the current owner."},"renounceOwnership()":{"details":"Leaves the contract without owner. It will not be possible to call `onlyOwner` functions anymore. Can only be called by the current owner. NOTE: Renouncing ownership will leave the contract without an owner, thereby removing any functionality that is only available to the owner."},"transferOwnership(address)":{"details":"Transfers ownership of the contract to a new account (`newOwner`). Can only be called by the current owner."}},"version":1},"opcodes":"PUSH1 0x80 PUSH1 0x40 MSTORE CALLVALUE DUP1 ISZERO PUSH2 0x10 JUMPI PUSH1 0x0 DUP1 REVERT JUMPDEST POP PUSH1 0x4 CALLDATASIZE LT PUSH2 0x116 JUMPI PUSH1 0x0 CALLDATALOAD PUSH1 0xE0 SHR DUP1 PUSH4 0x60AB5852 GT PUSH2 0xA2 JUMPI DUP1 PUSH4 0xAF3F5E22 GT PUSH2 0x71 JUMPI DUP1 PUSH4 0xAF3F5E22 EQ PUSH2 0x262 JUMPI DUP1 PUSH4 0xDD5B8467 EQ PUSH2 0x275 JUMPI DUP1 PUSH4 0xF1C5D6C2 EQ PUSH2 0x298 JUMPI DUP1 PUSH4 0xF2FDE38B EQ PUSH2 0x2C0 JUMPI DUP1 PUSH4 0xFD5E6DD1 EQ PUSH2 0x2D3 JUMPI PUSH1 0x0 DUP1 REVERT JUMPDEST DUP1 PUSH4 0x60AB5852 EQ PUSH2 0x22E JUMPI DUP1 PUSH4 0x715018A6 EQ PUSH2 0x236 JUMPI DUP1 PUSH4 0x877DD39D EQ PUSH2 0x23E JUMPI DUP1 PUSH4 0x8DA5CB5B EQ PUSH2 0x251 JUMPI PUSH1 0x0 DUP1 REVERT JUMPDEST DUP1 PUSH4 0x29161A00 GT PUSH2 0xE9 JUMPI DUP1 PUSH4 0x29161A00 EQ PUSH2 0x1AA JUMPI DUP1 PUSH4 0x2D1AD8B8 EQ PUSH2 0x1D5 JUMPI DUP1 PUSH4 0x55B08ABC EQ PUSH2 0x1E8 JUMPI DUP1 PUSH4 0x5E5F2E26 EQ PUSH2 0x208 JUMPI DUP1 PUSH4 0x5EB186F8 EQ PUSH2 0x21B JUMPI PUSH1 0x0 DUP1 REVERT JUMPDEST DUP1 PUSH4 0xBEA440D EQ PUSH2 0x11B JUMPI DUP1 PUSH4 0x171E44EA EQ PUSH2 0x130 JUMPI DUP1 PUSH4 0x276B11DA EQ PUSH2 0x143 JUMPI DUP1 PUSH4 0x27927B3E EQ PUSH2 0x169 JUMPI JUMPDEST PUSH1 0x0 DUP1 REVERT JUMPDEST PUSH2 0x12E PUSH2 0x129 CALLDATASIZE PUSH1 0x4 PUSH2 0xC4D JUMP JUMPDEST PUSH2 0x2E6 JUMP JUMPDEST STOP JUMPDEST PUSH2 0x12E PUSH2 0x13E CALLDATASIZE PUSH1 0x4 PUSH2 0xC79 JUMP JUMPDEST PUSH2 0x4BD JUMP JUMPDEST PUSH2 0x156 PUSH2 0x151 CALLDATASIZE PUSH1 0x4 PUSH2 0xC9B JUMP JUMPDEST PUSH2 0x539 JUMP JUMPDEST PUSH1 0x40 MLOAD SWAP1 DUP2 MSTORE PUSH1 0x20 ADD JUMPDEST PUSH1 0x40 MLOAD DUP1 SWAP2 SUB SWAP1 RETURN JUMPDEST PUSH2 0x192 PUSH2 0x177 CALLDATASIZE PUSH1 0x4 PUSH2 0xC79 JUMP JUMPDEST PUSH1 0x3 PUSH1 0x20 MSTORE PUSH1 0x0 SWAP1 DUP2 MSTORE PUSH1 0x40 SWAP1 KECCAK256 SLOAD PUSH1 0x1 PUSH1 0x1 PUSH1 0xA0 SHL SUB AND DUP2 JUMP JUMPDEST PUSH1 0x40 MLOAD PUSH1 0x1 PUSH1 0x1 PUSH1 0xA0 SHL SUB SWAP1 SWAP2 AND DUP2 MSTORE PUSH1 0x20 ADD PUSH2 0x160 JUMP JUMPDEST PUSH2 0x156 PUSH2 0x1B8 CALLDATASIZE PUSH1 0x4 PUSH2 0xC9B JUMP JUMPDEST PUSH1 0x1 PUSH1 0x20 SWAP1 DUP2 MSTORE PUSH1 0x0 SWAP3 DUP4 MSTORE PUSH1 0x40 DUP1 DUP5 KECCAK256 SWAP1 SWAP2 MSTORE SWAP1 DUP3 MSTORE SWAP1 KECCAK256 SLOAD DUP2 JUMP JUMPDEST PUSH2 0x12E PUSH2 0x1E3 CALLDATASIZE PUSH1 0x4 PUSH2 0xC79 JUMP JUMPDEST PUSH2 0x5C0 JUMP JUMPDEST PUSH2 0x156 PUSH2 0x1F6 CALLDATASIZE PUSH1 0x4 PUSH2 0xC79 JUMP JUMPDEST PUSH1 0x2 PUSH1 0x20 MSTORE PUSH1 0x0 SWAP1 DUP2 MSTORE PUSH1 0x40 SWAP1 KECCAK256 SLOAD DUP2 JUMP JUMPDEST PUSH2 0x192 PUSH2 0x216 CALLDATASIZE PUSH1 0x4 PUSH2 0xCC5 JUMP JUMPDEST PUSH2 0x6F0 JUMP JUMPDEST PUSH1 0x6 SLOAD PUSH2 0x192 SWAP1 PUSH1 0x1 PUSH1 0x1 PUSH1 0xA0 SHL SUB AND DUP2 JUMP JUMPDEST PUSH2 0x12E PUSH2 0x71A JUMP JUMPDEST PUSH2 0x12E PUSH2 0x817 JUMP JUMPDEST PUSH2 0x12E PUSH2 0x24C CALLDATASIZE PUSH1 0x4 PUSH2 0xC9B JUMP JUMPDEST PUSH2 0x84D JUMP JUMPDEST PUSH1 0x0 SLOAD PUSH1 0x1 PUSH1 0x1 PUSH1 0xA0 SHL SUB AND PUSH2 0x192 JUMP JUMPDEST PUSH2 0x156 PUSH2 0x270 CALLDATASIZE PUSH1 0x4 PUSH2 0xC79 JUMP JUMPDEST PUSH2 0x8A5 JUMP JUMPDEST PUSH2 0x288 PUSH2 0x283 CALLDATASIZE PUSH1 0x4 PUSH2 0xC79 JUMP JUMPDEST PUSH2 0x963 JUMP JUMPDEST PUSH1 0x40 MLOAD SWAP1 ISZERO ISZERO DUP2 MSTORE PUSH1 0x20 ADD PUSH2 0x160 JUMP JUMPDEST PUSH2 0x2AB PUSH2 0x2A6 CALLDATASIZE PUSH1 0x4 PUSH2 0xC79 JUMP JUMPDEST PUSH2 0x9CD JUMP JUMPDEST PUSH1 0x40 DUP1 MLOAD SWAP3 DUP4 MSTORE PUSH1 0x20 DUP4 ADD SWAP2 SWAP1 SWAP2 MSTORE ADD PUSH2 0x160 JUMP JUMPDEST PUSH2 0x12E PUSH2 0x2CE CALLDATASIZE PUSH1 0x4 PUSH2 0xC79 JUMP JUMPDEST PUSH2 0xACE JUMP JUMPDEST PUSH2 0x192 PUSH2 0x2E1 CALLDATASIZE PUSH1 0x4 PUSH2 0xCC5 JUMP JUMPDEST PUSH2 0xB66 JUMP JUMPDEST PUSH1 0x0 DUP3 GT PUSH2 0x33B JUMPI PUSH1 0x40 MLOAD PUSH3 0x461BCD PUSH1 0xE5 SHL DUP2 MSTORE PUSH1 0x20 PUSH1 0x4 DUP3 ADD MSTORE PUSH1 0x1A PUSH1 0x24 DUP3 ADD MSTORE PUSH32 0x416D6F756E74206D757374206265206D6F7265207468616E2030000000000000 PUSH1 0x44 DUP3 ADD MSTORE PUSH1 0x64 ADD JUMPDEST PUSH1 0x40 MLOAD DUP1 SWAP2 SUB SWAP1 REVERT JUMPDEST PUSH2 0x344 DUP2 PUSH2 0x963 JUMP JUMPDEST PUSH2 0x390 JUMPI PUSH1 0x40 MLOAD PUSH3 0x461BCD PUSH1 0xE5 SHL DUP2 MSTORE PUSH1 0x20 PUSH1 0x4 DUP3 ADD MSTORE PUSH1 0x1D PUSH1 0x24 DUP3 ADD MSTORE PUSH32 0x546F6B656E2069732063757272656E746C79206E6F20616C6C6F776564000000 PUSH1 0x44 DUP3 ADD MSTORE PUSH1 0x64 ADD PUSH2 0x332 JUMP JUMPDEST PUSH1 0x40 MLOAD PUSH4 0x23B872DD PUSH1 0xE0 SHL DUP2 MSTORE CALLER PUSH1 0x4 DUP3 ADD MSTORE ADDRESS PUSH1 0x24 DUP3 ADD MSTORE PUSH1 0x44 DUP2 ADD DUP4 SWAP1 MSTORE PUSH1 0x1 PUSH1 0x1 PUSH1 0xA0 SHL SUB DUP3 AND SWAP1 PUSH4 0x23B872DD SWAP1 PUSH1 0x64 ADD PUSH1 0x20 PUSH1 0x40 MLOAD DUP1 DUP4 SUB DUP2 PUSH1 0x0 DUP8 GAS CALL ISZERO DUP1 ISZERO PUSH2 0x3E3 JUMPI RETURNDATASIZE PUSH1 0x0 DUP1 RETURNDATACOPY RETURNDATASIZE PUSH1 0x0 REVERT JUMPDEST POP POP POP POP PUSH1 0x40 MLOAD RETURNDATASIZE PUSH1 0x1F NOT PUSH1 0x1F DUP3 ADD AND DUP3 ADD DUP1 PUSH1 0x40 MSTORE POP DUP2 ADD SWAP1 PUSH2 0x407 SWAP2 SWAP1 PUSH2 0xCDE JUMP JUMPDEST POP PUSH2 0x412 CALLER DUP3 PUSH2 0xB76 JUMP JUMPDEST PUSH1 0x1 PUSH1 0x1 PUSH1 0xA0 SHL SUB DUP2 AND PUSH1 0x0 SWAP1 DUP2 MSTORE PUSH1 0x1 PUSH1 0x20 SWAP1 DUP2 MSTORE PUSH1 0x40 DUP1 DUP4 KECCAK256 CALLER DUP5 MSTORE SWAP1 SWAP2 MSTORE SWAP1 KECCAK256 SLOAD PUSH2 0x441 SWAP1 DUP4 SWAP1 PUSH2 0xD16 JUMP JUMPDEST PUSH1 0x1 PUSH1 0x1 PUSH1 0xA0 SHL SUB DUP3 AND PUSH1 0x0 SWAP1 DUP2 MSTORE PUSH1 0x1 PUSH1 0x20 DUP2 DUP2 MSTORE PUSH1 0x40 DUP1 DUP5 KECCAK256 CALLER DUP6 MSTORE DUP3 MSTORE DUP1 DUP5 KECCAK256 SWAP5 SWAP1 SWAP5 SSTORE PUSH1 0x2 SWAP1 MSTORE SWAP2 SWAP1 KECCAK256 SLOAD EQ ISZERO PUSH2 0x4B9 JUMPI PUSH1 0x4 DUP1 SLOAD PUSH1 0x1 DUP2 ADD DUP3 SSTORE PUSH1 0x0 SWAP2 SWAP1 SWAP2 MSTORE PUSH32 0x8A35ACFBC15FF81A39AE7D344FD709F28E8600B4AA8C65C6B64BFE7FE36BD19B ADD DUP1 SLOAD PUSH1 0x1 PUSH1 0x1 PUSH1 0xA0 SHL SUB NOT AND CALLER OR SWAP1 SSTORE JUMPDEST POP POP JUMP JUMPDEST PUSH1 0x0 SLOAD PUSH1 0x1 PUSH1 0x1 PUSH1 0xA0 SHL SUB AND CALLER EQ PUSH2 0x4E7 JUMPI PUSH1 0x40 MLOAD PUSH3 0x461BCD PUSH1 0xE5 SHL DUP2 MSTORE PUSH1 0x4 ADD PUSH2 0x332 SWAP1 PUSH2 0xD2E JUMP JUMPDEST PUSH1 0x5 DUP1 SLOAD PUSH1 0x1 DUP2 ADD DUP3 SSTORE PUSH1 0x0 SWAP2 SWAP1 SWAP2 MSTORE PUSH32 0x36B6384B5ECA791C62761152D0C79BB0604C104A5FB6F4EB0703F3154BB3DB0 ADD DUP1 SLOAD PUSH1 0x1 PUSH1 0x1 PUSH1 0xA0 SHL SUB NOT AND PUSH1 0x1 PUSH1 0x1 PUSH1 0xA0 SHL SUB SWAP3 SWAP1 SWAP3 AND SWAP2 SWAP1 SWAP2 OR SWAP1 SSTORE JUMP JUMPDEST PUSH1 0x1 PUSH1 0x1 PUSH1 0xA0 SHL SUB DUP3 AND PUSH1 0x0 SWAP1 DUP2 MSTORE PUSH1 0x2 PUSH1 0x20 MSTORE PUSH1 0x40 DUP2 KECCAK256 SLOAD PUSH2 0x55E JUMPI POP PUSH1 0x0 PUSH2 0x5BA JUMP JUMPDEST PUSH1 0x0 DUP1 PUSH2 0x56A DUP5 PUSH2 0x9CD JUMP JUMPDEST SWAP1 SWAP3 POP SWAP1 POP PUSH2 0x57A DUP2 PUSH1 0xA PUSH2 0xE47 JUMP JUMPDEST PUSH1 0x1 PUSH1 0x1 PUSH1 0xA0 SHL SUB DUP1 DUP7 AND PUSH1 0x0 SWAP1 DUP2 MSTORE PUSH1 0x1 PUSH1 0x20 SWAP1 DUP2 MSTORE PUSH1 0x40 DUP1 DUP4 KECCAK256 SWAP4 DUP11 AND DUP4 MSTORE SWAP3 SWAP1 MSTORE KECCAK256 SLOAD PUSH2 0x5AB SWAP1 DUP5 SWAP1 PUSH2 0xE53 JUMP JUMPDEST PUSH2 0x5B5 SWAP2 SWAP1 PUSH2 0xE72 JUMP JUMPDEST SWAP3 POP POP POP JUMPDEST SWAP3 SWAP2 POP POP JUMP JUMPDEST PUSH1 0x1 PUSH1 0x1 PUSH1 0xA0 SHL SUB DUP2 AND PUSH1 0x0 SWAP1 DUP2 MSTORE PUSH1 0x1 PUSH1 0x20 SWAP1 DUP2 MSTORE PUSH1 0x40 DUP1 DUP4 KECCAK256 CALLER DUP5 MSTORE SWAP1 SWAP2 MSTORE SWAP1 KECCAK256 SLOAD DUP1 PUSH2 0x631 JUMPI PUSH1 0x40 MLOAD PUSH3 0x461BCD PUSH1 0xE5 SHL DUP2 MSTORE PUSH1 0x20 PUSH1 0x4 DUP3 ADD MSTORE PUSH1 0x1B PUSH1 0x24 DUP3 ADD MSTORE PUSH32 0x5374616B696E672062616C616E63652063616E6E6F7420626520300000000000 PUSH1 0x44 DUP3 ADD MSTORE PUSH1 0x64 ADD PUSH2 0x332 JUMP JUMPDEST PUSH1 0x40 MLOAD PUSH4 0xA9059CBB PUSH1 0xE0 SHL DUP2 MSTORE CALLER PUSH1 0x4 DUP3 ADD MSTORE PUSH1 0x24 DUP2 ADD DUP3 SWAP1 MSTORE PUSH1 0x1 PUSH1 0x1 PUSH1 0xA0 SHL SUB DUP4 AND SWAP1 PUSH4 0xA9059CBB SWAP1 PUSH1 0x44 ADD PUSH1 0x20 PUSH1 0x40 MLOAD DUP1 DUP4 SUB DUP2 PUSH1 0x0 DUP8 GAS CALL ISZERO DUP1 ISZERO PUSH2 0x67E JUMPI RETURNDATASIZE PUSH1 0x0 DUP1 RETURNDATACOPY RETURNDATASIZE PUSH1 0x0 REVERT JUMPDEST POP POP POP POP PUSH1 0x40 MLOAD RETURNDATASIZE PUSH1 0x1F NOT PUSH1 0x1F DUP3 ADD AND DUP3 ADD DUP1 PUSH1 0x40 MSTORE POP DUP2 ADD SWAP1 PUSH2 0x6A2 SWAP2 SWAP1 PUSH2 0xCDE JUMP JUMPDEST POP PUSH1 0x1 PUSH1 0x1 PUSH1 0xA0 SHL SUB DUP3 AND PUSH1 0x0 SWAP1 DUP2 MSTORE PUSH1 0x1 PUSH1 0x20 DUP2 DUP2 MSTORE PUSH1 0x40 DUP1 DUP5 KECCAK256 CALLER DUP6 MSTORE DUP3 MSTORE DUP1 DUP5 KECCAK256 DUP5 SWAP1 SSTORE PUSH1 0x2 SWAP1 SWAP2 MSTORE SWAP1 SWAP2 KECCAK256 SLOAD PUSH2 0x6DC SWAP2 SWAP1 PUSH2 0xE94 JUMP JUMPDEST CALLER PUSH1 0x0 SWAP1 DUP2 MSTORE PUSH1 0x2 PUSH1 0x20 MSTORE PUSH1 0x40 SWAP1 KECCAK256 SSTORE POP POP JUMP JUMPDEST PUSH1 0x5 DUP2 DUP2 SLOAD DUP2 LT PUSH2 0x700 JUMPI PUSH1 0x0 DUP1 REVERT JUMPDEST PUSH1 0x0 SWAP2 DUP3 MSTORE PUSH1 0x20 SWAP1 SWAP2 KECCAK256 ADD SLOAD PUSH1 0x1 PUSH1 0x1 PUSH1 0xA0 SHL SUB AND SWAP1 POP DUP2 JUMP JUMPDEST PUSH1 0x0 SLOAD PUSH1 0x1 PUSH1 0x1 PUSH1 0xA0 SHL SUB AND CALLER EQ PUSH2 0x744 JUMPI PUSH1 0x40 MLOAD PUSH3 0x461BCD PUSH1 0xE5 SHL DUP2 MSTORE PUSH1 0x4 ADD PUSH2 0x332 SWAP1 PUSH2 0xD2E JUMP JUMPDEST PUSH1 0x0 JUMPDEST PUSH1 0x4 SLOAD DUP2 LT ISZERO PUSH2 0x814 JUMPI PUSH1 0x0 PUSH1 0x4 DUP3 DUP2 SLOAD DUP2 LT PUSH2 0x766 JUMPI PUSH2 0x766 PUSH2 0xEAB JUMP JUMPDEST PUSH1 0x0 SWAP2 DUP3 MSTORE PUSH1 0x20 DUP3 KECCAK256 ADD SLOAD PUSH1 0x1 PUSH1 0x1 PUSH1 0xA0 SHL SUB AND SWAP2 POP PUSH2 0x785 DUP3 PUSH2 0x8A5 JUMP JUMPDEST PUSH1 0x6 SLOAD PUSH1 0x40 MLOAD PUSH4 0xA9059CBB PUSH1 0xE0 SHL DUP2 MSTORE PUSH1 0x1 PUSH1 0x1 PUSH1 0xA0 SHL SUB DUP6 DUP2 AND PUSH1 0x4 DUP4 ADD MSTORE PUSH1 0x24 DUP3 ADD DUP5 SWAP1 MSTORE SWAP3 SWAP4 POP SWAP2 AND SWAP1 PUSH4 0xA9059CBB SWAP1 PUSH1 0x44 ADD PUSH1 0x20 PUSH1 0x40 MLOAD DUP1 DUP4 SUB DUP2 PUSH1 0x0 DUP8 GAS CALL ISZERO DUP1 ISZERO PUSH2 0x7DA JUMPI RETURNDATASIZE PUSH1 0x0 DUP1 RETURNDATACOPY RETURNDATASIZE PUSH1 0x0 REVERT JUMPDEST POP POP POP POP PUSH1 0x40 MLOAD RETURNDATASIZE PUSH1 0x1F NOT PUSH1 0x1F DUP3 ADD AND DUP3 ADD DUP1 PUSH1 0x40 MSTORE POP DUP2 ADD SWAP1 PUSH2 0x7FE SWAP2 SWAP1 PUSH2 0xCDE JUMP JUMPDEST POP POP POP DUP1 DUP1 PUSH2 0x80C SWAP1 PUSH2 0xEC1 JUMP JUMPDEST SWAP2 POP POP PUSH2 0x747 JUMP JUMPDEST POP JUMP JUMPDEST PUSH1 0x0 SLOAD PUSH1 0x1 PUSH1 0x1 PUSH1 0xA0 SHL SUB AND CALLER EQ PUSH2 0x841 JUMPI PUSH1 0x40 MLOAD PUSH3 0x461BCD PUSH1 0xE5 SHL DUP2 MSTORE PUSH1 0x4 ADD PUSH2 0x332 SWAP1 PUSH2 0xD2E JUMP JUMPDEST PUSH2 0x84B PUSH1 0x0 PUSH2 0xBE1 JUMP JUMPDEST JUMP JUMPDEST PUSH1 0x0 SLOAD PUSH1 0x1 PUSH1 0x1 PUSH1 0xA0 SHL SUB AND CALLER EQ PUSH2 0x877 JUMPI PUSH1 0x40 MLOAD PUSH3 0x461BCD PUSH1 0xE5 SHL DUP2 MSTORE PUSH1 0x4 ADD PUSH2 0x332 SWAP1 PUSH2 0xD2E JUMP JUMPDEST PUSH1 0x1 PUSH1 0x1 PUSH1 0xA0 SHL SUB SWAP2 DUP3 AND PUSH1 0x0 SWAP1 DUP2 MSTORE PUSH1 0x3 PUSH1 0x20 MSTORE PUSH1 0x40 SWAP1 KECCAK256 DUP1 SLOAD PUSH1 0x1 PUSH1 0x1 PUSH1 0xA0 SHL SUB NOT AND SWAP2 SWAP1 SWAP3 AND OR SWAP1 SSTORE JUMP JUMPDEST PUSH1 0x1 PUSH1 0x1 PUSH1 0xA0 SHL SUB DUP2 AND PUSH1 0x0 SWAP1 DUP2 MSTORE PUSH1 0x2 PUSH1 0x20 MSTORE PUSH1 0x40 DUP2 KECCAK256 SLOAD DUP2 SWAP1 PUSH2 0x900 JUMPI PUSH1 0x40 MLOAD PUSH3 0x461BCD PUSH1 0xE5 SHL DUP2 MSTORE PUSH1 0x20 PUSH1 0x4 DUP3 ADD MSTORE PUSH1 0x11 PUSH1 0x24 DUP3 ADD MSTORE PUSH17 0x4E6F20746F6B656E73207374616B656421 PUSH1 0x78 SHL PUSH1 0x44 DUP3 ADD MSTORE PUSH1 0x64 ADD PUSH2 0x332 JUMP JUMPDEST PUSH1 0x0 JUMPDEST PUSH1 0x5 SLOAD DUP2 LT ISZERO PUSH2 0x95C JUMPI PUSH2 0x93E DUP5 PUSH1 0x5 DUP4 DUP2 SLOAD DUP2 LT PUSH2 0x924 JUMPI PUSH2 0x924 PUSH2 0xEAB JUMP JUMPDEST PUSH1 0x0 SWAP2 DUP3 MSTORE PUSH1 0x20 SWAP1 SWAP2 KECCAK256 ADD SLOAD PUSH1 0x1 PUSH1 0x1 PUSH1 0xA0 SHL SUB AND PUSH2 0x539 JUMP JUMPDEST PUSH2 0x948 SWAP1 DUP4 PUSH2 0xD16 JUMP JUMPDEST SWAP2 POP DUP1 PUSH2 0x954 DUP2 PUSH2 0xEC1 JUMP JUMPDEST SWAP2 POP POP PUSH2 0x903 JUMP JUMPDEST POP SWAP3 SWAP2 POP POP JUMP JUMPDEST PUSH1 0x0 DUP1 JUMPDEST PUSH1 0x5 SLOAD DUP2 LT ISZERO PUSH2 0x9C4 JUMPI DUP3 PUSH1 0x1 PUSH1 0x1 PUSH1 0xA0 SHL SUB AND PUSH1 0x5 DUP3 DUP2 SLOAD DUP2 LT PUSH2 0x98E JUMPI PUSH2 0x98E PUSH2 0xEAB JUMP JUMPDEST PUSH1 0x0 SWAP2 DUP3 MSTORE PUSH1 0x20 SWAP1 SWAP2 KECCAK256 ADD SLOAD PUSH1 0x1 PUSH1 0x1 PUSH1 0xA0 SHL SUB AND EQ ISZERO PUSH2 0x9B2 JUMPI POP PUSH1 0x1 SWAP3 SWAP2 POP POP JUMP JUMPDEST DUP1 PUSH2 0x9BC DUP2 PUSH2 0xEC1 JUMP JUMPDEST SWAP2 POP POP PUSH2 0x967 JUMP JUMPDEST POP PUSH1 0x0 SWAP3 SWAP2 POP POP JUMP JUMPDEST PUSH1 0x1 PUSH1 0x1 PUSH1 0xA0 SHL SUB DUP1 DUP3 AND PUSH1 0x0 SWAP1 DUP2 MSTORE PUSH1 0x3 PUSH1 0x20 MSTORE PUSH1 0x40 DUP1 DUP3 KECCAK256 SLOAD DUP2 MLOAD PUSH4 0x3FABE5A3 PUSH1 0xE2 SHL DUP2 MSTORE SWAP2 MLOAD SWAP3 SWAP4 DUP5 SWAP4 SWAP2 AND SWAP2 DUP3 SWAP2 DUP5 SWAP2 DUP4 SWAP2 PUSH4 0xFEAF968C SWAP2 PUSH1 0x4 DUP1 DUP3 ADD SWAP3 PUSH1 0xA0 SWAP3 SWAP1 SWAP2 SWAP1 DUP3 SWAP1 SUB ADD DUP2 DUP7 GAS STATICCALL ISZERO DUP1 ISZERO PUSH2 0xA2E JUMPI RETURNDATASIZE PUSH1 0x0 DUP1 RETURNDATACOPY RETURNDATASIZE PUSH1 0x0 REVERT JUMPDEST POP POP POP POP PUSH1 0x40 MLOAD RETURNDATASIZE PUSH1 0x1F NOT PUSH1 0x1F DUP3 ADD AND DUP3 ADD DUP1 PUSH1 0x40 MSTORE POP DUP2 ADD SWAP1 PUSH2 0xA52 SWAP2 SWAP1 PUSH2 0xEF6 JUMP JUMPDEST POP POP POP SWAP2 POP POP PUSH1 0x0 DUP3 PUSH1 0x1 PUSH1 0x1 PUSH1 0xA0 SHL SUB AND PUSH4 0x313CE567 PUSH1 0x40 MLOAD DUP2 PUSH4 0xFFFFFFFF AND PUSH1 0xE0 SHL DUP2 MSTORE PUSH1 0x4 ADD PUSH1 0x20 PUSH1 0x40 MLOAD DUP1 DUP4 SUB DUP2 DUP7 GAS STATICCALL ISZERO DUP1 ISZERO PUSH2 0xA98 JUMPI RETURNDATASIZE PUSH1 0x0 DUP1 RETURNDATACOPY RETURNDATASIZE PUSH1 0x0 REVERT JUMPDEST POP POP POP POP PUSH1 0x40 MLOAD RETURNDATASIZE PUSH1 0x1F NOT PUSH1 0x1F DUP3 ADD AND DUP3 ADD DUP1 PUSH1 0x40 MSTORE POP DUP2 ADD SWAP1 PUSH2 0xABC SWAP2 SWAP1 PUSH2 0xF46 JUMP JUMPDEST SWAP2 SWAP8 PUSH1 0xFF SWAP1 SWAP3 AND SWAP7 POP SWAP1 SWAP5 POP POP POP POP POP JUMP JUMPDEST PUSH1 0x0 SLOAD PUSH1 0x1 PUSH1 0x1 PUSH1 0xA0 SHL SUB AND CALLER EQ PUSH2 0xAF8 JUMPI PUSH1 0x40 MLOAD PUSH3 0x461BCD PUSH1 0xE5 SHL DUP2 MSTORE PUSH1 0x4 ADD PUSH2 0x332 SWAP1 PUSH2 0xD2E JUMP JUMPDEST PUSH1 0x1 PUSH1 0x1 PUSH1 0xA0 SHL SUB DUP2 AND PUSH2 0xB5D JUMPI PUSH1 0x40 MLOAD PUSH3 0x461BCD PUSH1 0xE5 SHL DUP2 MSTORE PUSH1 0x20 PUSH1 0x4 DUP3 ADD MSTORE PUSH1 0x26 PUSH1 0x24 DUP3 ADD MSTORE PUSH32 0x4F776E61626C653A206E6577206F776E657220697320746865207A65726F2061 PUSH1 0x44 DUP3 ADD MSTORE PUSH6 0x646472657373 PUSH1 0xD0 SHL PUSH1 0x64 DUP3 ADD MSTORE PUSH1 0x84 ADD PUSH2 0x332 JUMP JUMPDEST PUSH2 0x814 DUP2 PUSH2 0xBE1 JUMP JUMPDEST PUSH1 0x4 DUP2 DUP2 SLOAD DUP2 LT PUSH2 0x700 JUMPI PUSH1 0x0 DUP1 REVERT JUMPDEST PUSH1 0x1 PUSH1 0x1 PUSH1 0xA0 SHL SUB DUP1 DUP3 AND PUSH1 0x0 SWAP1 DUP2 MSTORE PUSH1 0x1 PUSH1 0x20 SWAP1 DUP2 MSTORE PUSH1 0x40 DUP1 DUP4 KECCAK256 SWAP4 DUP7 AND DUP4 MSTORE SWAP3 SWAP1 MSTORE KECCAK256 SLOAD PUSH2 0x4B9 JUMPI PUSH1 0x1 PUSH1 0x1 PUSH1 0xA0 SHL SUB DUP3 AND PUSH1 0x0 SWAP1 DUP2 MSTORE PUSH1 0x2 PUSH1 0x20 MSTORE PUSH1 0x40 SWAP1 KECCAK256 SLOAD PUSH2 0xBC4 SWAP1 PUSH1 0x1 PUSH2 0xD16 JUMP JUMPDEST PUSH1 0x1 PUSH1 0x1 PUSH1 0xA0 SHL SUB DUP4 AND PUSH1 0x0 SWAP1 DUP2 MSTORE PUSH1 0x2 PUSH1 0x20 MSTORE PUSH1 0x40 SWAP1 KECCAK256 SSTORE POP POP JUMP JUMPDEST PUSH1 0x0 DUP1 SLOAD PUSH1 0x1 PUSH1 0x1 PUSH1 0xA0 SHL SUB DUP4 DUP2 AND PUSH1 0x1 PUSH1 0x1 PUSH1 0xA0 SHL SUB NOT DUP4 AND DUP2 OR DUP5 SSTORE PUSH1 0x40 MLOAD SWAP2 SWAP1 SWAP3 AND SWAP3 DUP4 SWAP2 PUSH32 0x8BE0079C531659141344CD1FD0A4F28419497F9722A3DAAFE3B4186F6B6457E0 SWAP2 SWAP1 LOG3 POP POP JUMP JUMPDEST DUP1 CALLDATALOAD PUSH1 0x1 PUSH1 0x1 PUSH1 0xA0 SHL SUB DUP2 AND DUP2 EQ PUSH2 0xC48 JUMPI PUSH1 0x0 DUP1 REVERT JUMPDEST SWAP2 SWAP1 POP JUMP JUMPDEST PUSH1 0x0 DUP1 PUSH1 0x40 DUP4 DUP6 SUB SLT ISZERO PUSH2 0xC60 JUMPI PUSH1 0x0 DUP1 REVERT JUMPDEST DUP3 CALLDATALOAD SWAP2 POP PUSH2 0xC70 PUSH1 0x20 DUP5 ADD PUSH2 0xC31 JUMP JUMPDEST SWAP1 POP SWAP3 POP SWAP3 SWAP1 POP JUMP JUMPDEST PUSH1 0x0 PUSH1 0x20 DUP3 DUP5 SUB SLT ISZERO PUSH2 0xC8B JUMPI PUSH1 0x0 DUP1 REVERT JUMPDEST PUSH2 0xC94 DUP3 PUSH2 0xC31 JUMP JUMPDEST SWAP4 SWAP3 POP POP POP JUMP JUMPDEST PUSH1 0x0 DUP1 PUSH1 0x40 DUP4 DUP6 SUB SLT ISZERO PUSH2 0xCAE JUMPI PUSH1 0x0 DUP1 REVERT JUMPDEST PUSH2 0xCB7 DUP4 PUSH2 0xC31 JUMP JUMPDEST SWAP2 POP PUSH2 0xC70 PUSH1 0x20 DUP5 ADD PUSH2 0xC31 JUMP JUMPDEST PUSH1 0x0 PUSH1 0x20 DUP3 DUP5 SUB SLT ISZERO PUSH2 0xCD7 JUMPI PUSH1 0x0 DUP1 REVERT JUMPDEST POP CALLDATALOAD SWAP2 SWAP1 POP JUMP JUMPDEST PUSH1 0x0 PUSH1 0x20 DUP3 DUP5 SUB SLT ISZERO PUSH2 0xCF0 JUMPI PUSH1 0x0 DUP1 REVERT JUMPDEST DUP2 MLOAD DUP1 ISZERO ISZERO DUP2 EQ PUSH2 0xC94 JUMPI PUSH1 0x0 DUP1 REVERT JUMPDEST PUSH4 0x4E487B71 PUSH1 0xE0 SHL PUSH1 0x0 MSTORE PUSH1 0x11 PUSH1 0x4 MSTORE PUSH1 0x24 PUSH1 0x0 REVERT JUMPDEST PUSH1 0x0 DUP3 NOT DUP3 GT ISZERO PUSH2 0xD29 JUMPI PUSH2 0xD29 PUSH2 0xD00 JUMP JUMPDEST POP ADD SWAP1 JUMP JUMPDEST PUSH1 0x20 DUP1 DUP3 MSTORE DUP2 DUP2 ADD MSTORE PUSH32 0x4F776E61626C653A2063616C6C6572206973206E6F7420746865206F776E6572 PUSH1 0x40 DUP3 ADD MSTORE PUSH1 0x60 ADD SWAP1 JUMP JUMPDEST PUSH1 0x1 DUP2 DUP2 JUMPDEST DUP1 DUP6 GT ISZERO PUSH2 0xD9E JUMPI DUP2 PUSH1 0x0 NOT DIV DUP3 GT ISZERO PUSH2 0xD84 JUMPI PUSH2 0xD84 PUSH2 0xD00 JUMP JUMPDEST DUP1 DUP6 AND ISZERO PUSH2 0xD91 JUMPI SWAP2 DUP2 MUL SWAP2 JUMPDEST SWAP4 DUP5 SHR SWAP4 SWAP1 DUP1 MUL SWAP1 PUSH2 0xD68 JUMP JUMPDEST POP SWAP3 POP SWAP3 SWAP1 POP JUMP JUMPDEST PUSH1 0x0 DUP3 PUSH2 0xDB5 JUMPI POP PUSH1 0x1 PUSH2 0x5BA JUMP JUMPDEST DUP2 PUSH2 0xDC2 JUMPI POP PUSH1 0x0 PUSH2 0x5BA JUMP JUMPDEST DUP2 PUSH1 0x1 DUP2 EQ PUSH2 0xDD8 JUMPI PUSH1 0x2 DUP2 EQ PUSH2 0xDE2 JUMPI PUSH2 0xDFE JUMP JUMPDEST PUSH1 0x1 SWAP2 POP POP PUSH2 0x5BA JUMP JUMPDEST PUSH1 0xFF DUP5 GT ISZERO PUSH2 0xDF3 JUMPI PUSH2 0xDF3 PUSH2 0xD00 JUMP JUMPDEST POP POP PUSH1 0x1 DUP3 SHL PUSH2 0x5BA JUMP JUMPDEST POP PUSH1 0x20 DUP4 LT PUSH2 0x133 DUP4 LT AND PUSH1 0x4E DUP5 LT PUSH1 0xB DUP5 LT AND OR ISZERO PUSH2 0xE21 JUMPI POP DUP2 DUP2 EXP PUSH2 0x5BA JUMP JUMPDEST PUSH2 0xE2B DUP4 DUP4 PUSH2 0xD63 JUMP JUMPDEST DUP1 PUSH1 0x0 NOT DIV DUP3 GT ISZERO PUSH2 0xE3F JUMPI PUSH2 0xE3F PUSH2 0xD00 JUMP JUMPDEST MUL SWAP4 SWAP3 POP POP POP JUMP JUMPDEST PUSH1 0x0 PUSH2 0xC94 DUP4 DUP4 PUSH2 0xDA6 JUMP JUMPDEST PUSH1 0x0 DUP2 PUSH1 0x0 NOT DIV DUP4 GT DUP3 ISZERO ISZERO AND ISZERO PUSH2 0xE6D JUMPI PUSH2 0xE6D PUSH2 0xD00 JUMP JUMPDEST POP MUL SWAP1 JUMP JUMPDEST PUSH1 0x0 DUP3 PUSH2 0xE8F JUMPI PUSH4 0x4E487B71 PUSH1 0xE0 SHL PUSH1 0x0 MSTORE PUSH1 0x12 PUSH1 0x4 MSTORE PUSH1 0x24 PUSH1 0x0 REVERT JUMPDEST POP DIV SWAP1 JUMP JUMPDEST PUSH1 0x0 DUP3 DUP3 LT ISZERO PUSH2 0xEA6 JUMPI PUSH2 0xEA6 PUSH2 0xD00 JUMP JUMPDEST POP SUB SWAP1 JUMP JUMPDEST PUSH4 0x4E487B71 PUSH1 0xE0 SHL PUSH1 0x0 MSTORE PUSH1 0x32 PUSH1 0x4 MSTORE PUSH1 0x24 PUSH1 0x0 REVERT JUMPDEST PUSH1 0x0 PUSH1 0x0 NOT DUP3 EQ ISZERO PUSH2 0xED5 JUMPI PUSH2 0xED5 PUSH2 0xD00 JUMP JUMPDEST POP PUSH1 0x1 ADD SWAP1 JUMP JUMPDEST DUP1 MLOAD PUSH10 0xFFFFFFFFFFFFFFFFFFFF DUP2 AND DUP2 EQ PUSH2 0xC48 JUMPI PUSH1 0x0 DUP1 REVERT JUMPDEST PUSH1 0x0 DUP1 PUSH1 0x0 DUP1 PUSH1 0x0 PUSH1 0xA0 DUP7 DUP9 SUB SLT ISZERO PUSH2 0xF0E JUMPI PUSH1 0x0 DUP1 REVERT JUMPDEST PUSH2 0xF17 DUP7 PUSH2 0xEDC JUMP JUMPDEST SWAP5 POP PUSH1 0x20 DUP7 ADD MLOAD SWAP4 POP PUSH1 0x40 DUP7 ADD MLOAD SWAP3 POP PUSH1 0x60 DUP7 ADD MLOAD SWAP2 POP PUSH2 0xF3A PUSH1 0x80 DUP8 ADD PUSH2 0xEDC JUMP JUMPDEST SWAP1 POP SWAP3 SWAP6 POP SWAP3 SWAP6 SWAP1 SWAP4 POP JUMP JUMPDEST PUSH1 0x0 PUSH1 0x20 DUP3 DUP5 SUB SLT ISZERO PUSH2 0xF58 JUMPI PUSH1 0x0 DUP1 REVERT JUMPDEST DUP2 MLOAD PUSH1 0xFF DUP2 AND DUP2 EQ PUSH2 0xC94 JUMPI PUSH1 0x0 DUP1 REVERT INVALID LOG2 PUSH5 0x6970667358 0x22 SLT KECCAK256 CODESIZE MLOAD EXP 0xBE 0xE9 PUSH32 0x1962BEA20A78AD45E06086C92236C435762E71887109210050BF64736F6C6343 STOP ADDMOD 0xC STOP CALLER ","sha1":"64ae8985190bac4be093beb61da53be79bf75168","source":"pragma solidity ^0.8.0;\n\nimport \"@openzeppelin/contracts/access/Ownable.sol\";\nimport \"@openzeppelin/contracts/token/ERC20/IERC20.sol\";\nimport \"@chainlink/contracts/src/v0.8/interfaces/AggregatorV3Interface.sol\";\n\ncontract TokenFarm is Ownable {\n\n    mapping(address => mapping(address => uint256)) public stakingBalance;\n    mapping(address => uint256) public uniqueTokenStaked;\n    mapping(address => address) public tokenPriceFeedMapping;\n    address[] public stakers;\n    address[] public allowedTokens;\n    IERC20 public dappToken;\n\n    constructor(address _dappTokenAddress) public {\n        dappToken = IERC20(_dappTokenAddress);\n    }\n\n    function setPriceFeedContract(address _token, address _priceFeed) public onlyOwner {\n        tokenPriceFeedMapping[_token] = _priceFeed;\n        address priceFeedAddress = tokenPriceFeedMapping[_token];\n    }\n\n    function issueTokens() public onlyOwner {\n        for(uint256 stakesIndex = 0; stakesIndex < stakers.length; stakesIndex++) {\n            address recipient = stakers[stakesIndex];\n            uint256 userTotalValue = getUserTotalValue(recipient);\n            dappToken.transfer(recipient, userTotalValue);\n        }\n    }\n\n    function getUserTotalValue(address _user) public view returns (uint256) {\n        uint256 totalValue = 0;\n        require(uniqueTokenStaked[_user] > 0, \"No tokens staked!\");\n        for(uint256 allowedTokensIndex = 0; allowedTokensIndex < allowedTokens.length; allowedTokensIndex++) {\n            totalValue = totalValue + getUserSingleTokenValue(_user, allowedTokens[allowedTokensIndex]);\n        }\n        return totalValue;\n    }\n\n    function getUserSingleTokenValue(address _user, address _token) public view returns (uint256) {\n        if(uniqueTokenStaked[_user] <= 0) {\n            return 0;\n        }\n        (uint256 price, uint256 decimals) = getTokenValue(_token);\n        return (stakingBalance[_token][_user] * price / 10 ** decimals);\n    }\n\n    function getTokenValue(address _token) public view returns (uint256, uint256) {\n        address priceFeedAddress = tokenPriceFeedMapping[_token];\n        AggregatorV3Interface priceFeed = AggregatorV3Interface(priceFeedAddress);\n        (,int256 price,,,) = priceFeed.latestRoundData();\n        uint256 decimals = priceFeed.decimals();\n        return (uint256(price), decimals);\n    }\n\n    function stakeTokens(uint256 _amount, address _token) public {\n        require(_amount > 0, \"Amount must be more than 0\");\n        require(tokenIsAllowed(_token), \"Token is currently no allowed\");\n        IERC20(_token).transferFrom(msg.sender, address(this), _amount);\n        updateUniqueTokenStaked(msg.sender, _token);\n        stakingBalance[_token][msg.sender] = stakingBalance[_token][msg.sender] + _amount;\n        if(uniqueTokenStaked[msg.sender] == 1) {\n            stakers.push(msg.sender);\n        }\n    }\n\n    function unstakeTokens(address _token) public {\n        uint256 balance = stakingBalance[_token][msg.sender];\n        require(balance > 0, \"Staking balance cannot be 0\");\n        IERC20(_token).transfer(msg.sender, balance);\n        stakingBalance[_token][msg.sender] = 0;\n        uniqueTokenStaked[msg.sender] = uniqueTokenStaked[msg.sender] - 1;\n    }\n\n    function updateUniqueTokenStaked(address _user, address _token) internal {\n        if(stakingBalance[_token][_user] <= 0) {\n            uniqueTokenStaked[_user] = uniqueTokenStaked[_user] + 1;\n        }\n    }\n\n    function addAllowedTokens(address _token) public onlyOwner {\n        allowedTokens.push(_token);\n    }\n\n    function tokenIsAllowed(address _token) public returns (bool) {\n        for(uint256 allowedTokensIndex = 0; allowedTokensIndex < allowedTokens.length; allowedTokensIndex++) {\n            if(allowedTokens[allowedTokensIndex] == _token) {\n                return true;\n            }\n        }\n        return false;\n    }\n}","sourcePath":"contracts/TokenFarm.sol","type":"contract","deployment":{"address":"0x82cfa2a249a80E6362Fd81e50E113809927E1714","chainid":"42","blockHeight":30390136}}